{
  "contractName": "prodidentify",
  "abi": [
    {
      "constant": false,
      "inputs": [
        {
          "name": "qrcode",
          "type": "string"
        },
        {
          "name": "_price",
          "type": "uint256"
        },
        {
          "name": "_name",
          "type": "string"
        },
        {
          "name": "_product_type",
          "type": "string"
        }
      ],
      "name": "createTask",
      "outputs": [],
      "payable": false,
      "stateMutability": "nonpayable",
      "type": "function",
      "signature": "0xc37d4556"
    },
    {
      "constant": true,
      "inputs": [
        {
          "name": "qrcode",
          "type": "string"
        }
      ],
      "name": "getProduct",
      "outputs": [
        {
          "name": "",
          "type": "uint256"
        },
        {
          "name": "",
          "type": "string"
        },
        {
          "name": "",
          "type": "string"
        }
      ],
      "payable": false,
      "stateMutability": "view",
      "type": "function",
      "signature": "0x68111cce"
    }
  ],
  "bytecode": "0x608060405234801561001057600080fd5b5061083f806100206000396000f3fe60806040526004361061004c576000357c0100000000000000000000000000000000000000000000000000000000900463ffffffff16806368111cce14610051578063c37d455614610205575b600080fd5b34801561005d57600080fd5b506101176004803603602081101561007457600080fd5b810190808035906020019064010000000081111561009157600080fd5b8201836020820111156100a357600080fd5b803590602001918460018302840111640100000000831117156100c557600080fd5b91908080601f016020809104026020016040519081016040528093929190818152602001838380828437600081840152601f19601f820116905080830192505050505050509192919290505050610405565b604051808481526020018060200180602001838103835285818151815260200191508051906020019080838360005b83811015610161578082015181840152602081019050610146565b50505050905090810190601f16801561018e5780820380516001836020036101000a031916815260200191505b50838103825284818151815260200191508051906020019080838360005b838110156101c75780820151818401526020810190506101ac565b50505050905090810190601f1680156101f45780820380516001836020036101000a031916815260200191505b509550505050505060405180910390f35b34801561021157600080fd5b506104036004803603608081101561022857600080fd5b810190808035906020019064010000000081111561024557600080fd5b82018360208201111561025757600080fd5b8035906020019184600183028401116401000000008311171561027957600080fd5b91908080601f016020809104026020016040519081016040528093929190818152602001838380828437600081840152601f19601f82011690508083019250505050505050919291929080359060200190929190803590602001906401000000008111156102e657600080fd5b8201836020820111156102f857600080fd5b8035906020019184600183028401116401000000008311171561031a57600080fd5b91908080601f016020809104026020016040519081016040528093929190818152602001838380828437600081840152601f19601f8201169050808301925050505050505091929192908035906020019064010000000081111561037d57600080fd5b82018360208201111561038f57600080fd5b803590602001918460018302840111640100000000831117156103b157600080fd5b91908080601f016020809104026020016040519081016040528093929190818152602001838380828437600081840152601f19601f82011690508083019250505050505050919291929050505061069a565b005b60006060806000846040518082805190602001908083835b602083101515610442578051825260208201915060208101905060208303925061041d565b6001836020036101000a0380198251168184511680821785525050505050509050019150509081526020016040518091039020600001546000856040518082805190602001908083835b6020831015156104b1578051825260208201915060208101905060208303925061048c565b6001836020036101000a03801982511681845116808217855250505050505090500191505090815260200160405180910390206001016000866040518082805190602001908083835b60208310151561051f57805182526020820191506020810190506020830392506104fa565b6001836020036101000a0380198251168184511680821785525050505050509050019150509081526020016040518091039020600201818054600181600116156101000203166002900480601f0160208091040260200160405190810160405280929190818152602001828054600181600116156101000203166002900480156105ea5780601f106105bf576101008083540402835291602001916105ea565b820191906000526020600020905b8154815290600101906020018083116105cd57829003601f168201915b50505050509150808054600181600116156101000203166002900480601f0160208091040260200160405190810160405280929190818152602001828054600181600116156101000203166002900480156106865780601f1061065b57610100808354040283529160200191610686565b820191906000526020600020905b81548152906001019060200180831161066957829003601f168201915b505050505090509250925092509193909250565b606060405190810160405280848152602001838152602001828152506000856040518082805190602001908083835b6020831015156106ee57805182526020820191506020810190506020830392506106c9565b6001836020036101000a038019825116818451168082178552505050505050905001915050908152602001604051809103902060008201518160000155602082015181600101908051906020019061074792919061076e565b50604082015181600201908051906020019061076492919061076e565b5090505050505050565b828054600181600116156101000203166002900490600052602060002090601f016020900481019282601f106107af57805160ff19168380011785556107dd565b828001600101855582156107dd579182015b828111156107dc5782518255916020019190600101906107c1565b5b5090506107ea91906107ee565b5090565b61081091905b8082111561080c5760008160009055506001016107f4565b5090565b9056fea165627a7a7230582042eeb51d3f86c4481f7369ad36733aeef0bfc252c8e980a04c8dada32335a2310029",
  "source": "pragma solidity >=0.4.22 <0.9.0;\n\ncontract prodidentify{\n\n    struct Product{\n        uint price;\n        string name;\n        string product_type;\n    }   \n\n    mapping(string => Product) products;\n\n    function createTask(string memory qrcode ,uint _price,string memory _name,string memory _product_type) public{\n        products[qrcode]=Product(_price,_name,_product_type);\n    }\n\n    function getProduct(string memory qrcode) public view returns(uint, string memory,string memory){\n            return (products[qrcode].price , products[qrcode].name,products[qrcode].product_type);\n    }\n}\n",
  "sourcePath": "/home/amrit/Desktop/testprod/contracts/prodidentify.sol",
  "compiler": {
    "name": "solc",
    "version": "0.5.0+commit.1d4f565a.Emscripten.clang"
  },
  "schemaVersion": "3.0.1",
  "updatedAt": "2022-04-07T16:36:27.393Z",
  "devdoc": {
    "methods": {}
  },
  "userdoc": {
    "methods": {}
  }
}